{
  "_format": "hh-sol-artifact-1",
  "contractName": "SoulboundToken",
  "sourceName": "contracts/SoulboundToken.sol",
  "abi": [
    {
      "inputs": [],
      "stateMutability": "nonpayable",
      "type": "constructor"
    },
    {
      "anonymous": false,
      "inputs": [
        {
          "indexed": true,
          "internalType": "address",
          "name": "owner",
          "type": "address"
        },
        {
          "indexed": true,
          "internalType": "address",
          "name": "approved",
          "type": "address"
        },
        {
          "indexed": true,
          "internalType": "uint256",
          "name": "tokenId",
          "type": "uint256"
        }
      ],
      "name": "Approval",
      "type": "event"
    },
    {
      "anonymous": false,
      "inputs": [
        {
          "indexed": true,
          "internalType": "address",
          "name": "owner",
          "type": "address"
        },
        {
          "indexed": true,
          "internalType": "address",
          "name": "operator",
          "type": "address"
        },
        {
          "indexed": false,
          "internalType": "bool",
          "name": "approved",
          "type": "bool"
        }
      ],
      "name": "ApprovalForAll",
      "type": "event"
    },
    {
      "anonymous": false,
      "inputs": [
        {
          "indexed": true,
          "internalType": "address",
          "name": "previousOwner",
          "type": "address"
        },
        {
          "indexed": true,
          "internalType": "address",
          "name": "newOwner",
          "type": "address"
        }
      ],
      "name": "OwnershipTransferred",
      "type": "event"
    },
    {
      "anonymous": false,
      "inputs": [
        {
          "indexed": true,
          "internalType": "address",
          "name": "from",
          "type": "address"
        },
        {
          "indexed": true,
          "internalType": "address",
          "name": "to",
          "type": "address"
        },
        {
          "indexed": true,
          "internalType": "uint256",
          "name": "tokenId",
          "type": "uint256"
        }
      ],
      "name": "Transfer",
      "type": "event"
    },
    {
      "inputs": [],
      "name": "MAX_SUPPLY",
      "outputs": [
        {
          "internalType": "uint256",
          "name": "",
          "type": "uint256"
        }
      ],
      "stateMutability": "view",
      "type": "function"
    },
    {
      "inputs": [
        {
          "internalType": "address",
          "name": "to",
          "type": "address"
        },
        {
          "internalType": "uint256",
          "name": "tokenId",
          "type": "uint256"
        }
      ],
      "name": "approve",
      "outputs": [],
      "stateMutability": "nonpayable",
      "type": "function"
    },
    {
      "inputs": [
        {
          "internalType": "address",
          "name": "owner",
          "type": "address"
        }
      ],
      "name": "balanceOf",
      "outputs": [
        {
          "internalType": "uint256",
          "name": "",
          "type": "uint256"
        }
      ],
      "stateMutability": "view",
      "type": "function"
    },
    {
      "inputs": [
        {
          "internalType": "address",
          "name": "",
          "type": "address"
        }
      ],
      "name": "eligibleVoter",
      "outputs": [
        {
          "internalType": "bool",
          "name": "",
          "type": "bool"
        }
      ],
      "stateMutability": "view",
      "type": "function"
    },
    {
      "inputs": [
        {
          "internalType": "uint256",
          "name": "tokenId",
          "type": "uint256"
        }
      ],
      "name": "getApproved",
      "outputs": [
        {
          "internalType": "address",
          "name": "",
          "type": "address"
        }
      ],
      "stateMutability": "view",
      "type": "function"
    },
    {
      "inputs": [
        {
          "internalType": "address",
          "name": "",
          "type": "address"
        }
      ],
      "name": "hasMinted",
      "outputs": [
        {
          "internalType": "bool",
          "name": "",
          "type": "bool"
        }
      ],
      "stateMutability": "view",
      "type": "function"
    },
    {
      "inputs": [
        {
          "internalType": "address",
          "name": "_owner",
          "type": "address"
        }
      ],
      "name": "hasMintedSoulbound",
      "outputs": [
        {
          "internalType": "bool",
          "name": "",
          "type": "bool"
        }
      ],
      "stateMutability": "view",
      "type": "function"
    },
    {
      "inputs": [
        {
          "internalType": "address",
          "name": "owner",
          "type": "address"
        },
        {
          "internalType": "address",
          "name": "operator",
          "type": "address"
        }
      ],
      "name": "isApprovedForAll",
      "outputs": [
        {
          "internalType": "bool",
          "name": "",
          "type": "bool"
        }
      ],
      "stateMutability": "view",
      "type": "function"
    },
    {
      "inputs": [
        {
          "internalType": "address",
          "name": "_voter",
          "type": "address"
        }
      ],
      "name": "isEligibleVoter",
      "outputs": [
        {
          "internalType": "bool",
          "name": "",
          "type": "bool"
        }
      ],
      "stateMutability": "view",
      "type": "function"
    },
    {
      "inputs": [],
      "name": "mintSoulbound",
      "outputs": [],
      "stateMutability": "nonpayable",
      "type": "function"
    },
    {
      "inputs": [],
      "name": "name",
      "outputs": [
        {
          "internalType": "string",
          "name": "",
          "type": "string"
        }
      ],
      "stateMutability": "view",
      "type": "function"
    },
    {
      "inputs": [],
      "name": "owner",
      "outputs": [
        {
          "internalType": "address",
          "name": "",
          "type": "address"
        }
      ],
      "stateMutability": "view",
      "type": "function"
    },
    {
      "inputs": [
        {
          "internalType": "uint256",
          "name": "tokenId",
          "type": "uint256"
        }
      ],
      "name": "ownerOf",
      "outputs": [
        {
          "internalType": "address",
          "name": "",
          "type": "address"
        }
      ],
      "stateMutability": "view",
      "type": "function"
    },
    {
      "inputs": [],
      "name": "renounceOwnership",
      "outputs": [],
      "stateMutability": "nonpayable",
      "type": "function"
    },
    {
      "inputs": [
        {
          "internalType": "address",
          "name": "from",
          "type": "address"
        },
        {
          "internalType": "address",
          "name": "to",
          "type": "address"
        },
        {
          "internalType": "uint256",
          "name": "tokenId",
          "type": "uint256"
        }
      ],
      "name": "safeTransferFrom",
      "outputs": [],
      "stateMutability": "nonpayable",
      "type": "function"
    },
    {
      "inputs": [
        {
          "internalType": "address",
          "name": "from",
          "type": "address"
        },
        {
          "internalType": "address",
          "name": "to",
          "type": "address"
        },
        {
          "internalType": "uint256",
          "name": "tokenId",
          "type": "uint256"
        },
        {
          "internalType": "bytes",
          "name": "_data",
          "type": "bytes"
        }
      ],
      "name": "safeTransferFrom",
      "outputs": [],
      "stateMutability": "nonpayable",
      "type": "function"
    },
    {
      "inputs": [
        {
          "internalType": "address",
          "name": "operator",
          "type": "address"
        },
        {
          "internalType": "bool",
          "name": "approved",
          "type": "bool"
        }
      ],
      "name": "setApprovalForAll",
      "outputs": [],
      "stateMutability": "nonpayable",
      "type": "function"
    },
    {
      "inputs": [
        {
          "internalType": "string",
          "name": "_baseTokenURI",
          "type": "string"
        }
      ],
      "name": "setBaseTokenURI",
      "outputs": [],
      "stateMutability": "nonpayable",
      "type": "function"
    },
    {
      "inputs": [
        {
          "internalType": "bytes4",
          "name": "interfaceId",
          "type": "bytes4"
        }
      ],
      "name": "supportsInterface",
      "outputs": [
        {
          "internalType": "bool",
          "name": "",
          "type": "bool"
        }
      ],
      "stateMutability": "view",
      "type": "function"
    },
    {
      "inputs": [],
      "name": "symbol",
      "outputs": [
        {
          "internalType": "string",
          "name": "",
          "type": "string"
        }
      ],
      "stateMutability": "view",
      "type": "function"
    },
    {
      "inputs": [
        {
          "internalType": "uint256",
          "name": "tokenId",
          "type": "uint256"
        }
      ],
      "name": "tokenURI",
      "outputs": [
        {
          "internalType": "string",
          "name": "",
          "type": "string"
        }
      ],
      "stateMutability": "view",
      "type": "function"
    },
    {
      "inputs": [],
      "name": "totalSupply",
      "outputs": [
        {
          "internalType": "uint256",
          "name": "",
          "type": "uint256"
        }
      ],
      "stateMutability": "view",
      "type": "function"
    },
    {
      "inputs": [
        {
          "internalType": "address",
          "name": "from",
          "type": "address"
        },
        {
          "internalType": "address",
          "name": "to",
          "type": "address"
        },
        {
          "internalType": "uint256",
          "name": "tokenId",
          "type": "uint256"
        }
      ],
      "name": "transferFrom",
      "outputs": [],
      "stateMutability": "nonpayable",
      "type": "function"
    },
    {
      "inputs": [
        {
          "internalType": "address",
          "name": "newOwner",
          "type": "address"
        }
      ],
      "name": "transferOwnership",
      "outputs": [],
      "stateMutability": "nonpayable",
      "type": "function"
    }
  ],
  "bytecode": "0x60806040523480156200001157600080fd5b506040518060400160405280600e81526020017f536f756c626f756e64546f6b656e0000000000000000000000000000000000008152506040518060400160405280600381526020017f5342540000000000000000000000000000000000000000000000000000000000815250816000908051906020019062000096929190620001a3565b508060019080519060200190620000af929190620001a3565b5050506000620000c46200019b60201b60201c565b905080600660006101000a81548173ffffffffffffffffffffffffffffffffffffffff021916908373ffffffffffffffffffffffffffffffffffffffff1602179055508073ffffffffffffffffffffffffffffffffffffffff16600073ffffffffffffffffffffffffffffffffffffffff167f8be0079c531659141344cd1fd0a4f28419497f9722a3daafe3b4186f6b6457e060405160405180910390a3506040518060800160405280605f81526020016200368e605f9139600b908051906020019062000194929190620001a3565b50620002b8565b600033905090565b828054620001b19062000253565b90600052602060002090601f016020900481019282620001d5576000855562000221565b82601f10620001f057805160ff191683800117855562000221565b8280016001018555821562000221579182015b828111156200022057825182559160200191906001019062000203565b5b50905062000230919062000234565b5090565b5b808211156200024f57600081600090555060010162000235565b5090565b600060028204905060018216806200026c57607f821691505b6020821081141562000283576200028262000289565b5b50919050565b7f4e487b7100000000000000000000000000000000000000000000000000000000600052602260045260246000fd5b6133c680620002c86000396000f3fe608060405234801561001057600080fd5b50600436106101585760003560e01c80636352211e116100c3578063b88d4fde1161007c578063b88d4fde146103d9578063c87b56dd146103f5578063dfd9ca4314610425578063e985e9c51461042f578063f2fde38b1461045f578063f3ab6c191461047b57610158565b80636352211e1461031757806370a0823114610347578063715018a6146103775780638da5cb5b1461038157806395d89b411461039f578063a22cb465146103bd57610158565b806323b872dd1161011557806323b872dd1461024557806330176e131461026157806332cb6b0c1461027d57806338e21cce1461029b5780634225e7f4146102cb57806342842e0e146102fb57610158565b806301ffc9a71461015d578063025b84be1461018d57806306fdde03146101bd578063081812fc146101db578063095ea7b31461020b57806318160ddd14610227575b600080fd5b610177600480360381019061017291906121dd565b6104ab565b604051610184919061273a565b60405180910390f35b6101a760048036038101906101a29190612036565b61058d565b6040516101b4919061273a565b60405180910390f35b6101c56105e3565b6040516101d29190612755565b60405180910390f35b6101f560048036038101906101f09190612270565b610675565b60405161020291906126d3565b60405180910390f35b610225600480360381019061022091906121a1565b6106fa565b005b61022f610812565b60405161023c91906129d7565b60405180910390f35b61025f600480360381019061025a919061209b565b610818565b005b61027b6004803603810190610276919061222f565b610878565b005b61028561090e565b60405161029291906129d7565b60405180910390f35b6102b560048036038101906102b09190612036565b610913565b6040516102c2919061273a565b60405180910390f35b6102e560048036038101906102e09190612036565b610933565b6040516102f2919061273a565b60405180910390f35b6103156004803603810190610310919061209b565b610989565b005b610331600480360381019061032c9190612270565b6109a9565b60405161033e91906126d3565b60405180910390f35b610361600480360381019061035c9190612036565b610a5b565b60405161036e91906129d7565b60405180910390f35b61037f610b13565b005b610389610c50565b60405161039691906126d3565b60405180910390f35b6103a7610c7a565b6040516103b49190612755565b60405180910390f35b6103d760048036038101906103d29190612165565b610d0c565b005b6103f360048036038101906103ee91906120ea565b610e8d565b005b61040f600480360381019061040a9190612270565b610eef565b60405161041c9190612755565b60405180910390f35b61042d610f6b565b005b6104496004803603810190610444919061205f565b611124565b604051610456919061273a565b60405180910390f35b61047960048036038101906104749190612036565b6111b8565b005b61049560048036038101906104909190612036565b611364565b6040516104a2919061273a565b60405180910390f35b60007f80ac58cd000000000000000000000000000000000000000000000000000000007bffffffffffffffffffffffffffffffffffffffffffffffffffffffff1916827bffffffffffffffffffffffffffffffffffffffffffffffffffffffff1916148061057657507f5b5e139f000000000000000000000000000000000000000000000000000000007bffffffffffffffffffffffffffffffffffffffffffffffffffffffff1916827bffffffffffffffffffffffffffffffffffffffffffffffffffffffff1916145b80610586575061058582611384565b5b9050919050565b6000600960008373ffffffffffffffffffffffffffffffffffffffff1673ffffffffffffffffffffffffffffffffffffffff16815260200190815260200160002060009054906101000a900460ff169050919050565b6060600080546105f290612c42565b80601f016020809104026020016040519081016040528092919081815260200182805461061e90612c42565b801561066b5780601f106106405761010080835404028352916020019161066b565b820191906000526020600020905b81548152906001019060200180831161064e57829003601f168201915b5050505050905090565b6000610680826113ee565b6106bf576040517f08c379a00000000000000000000000000000000000000000000000000000000081526004016106b6906128f7565b60405180910390fd5b6004600083815260200190815260200160002060009054906101000a900473ffffffffffffffffffffffffffffffffffffffff169050919050565b6000610705826109a9565b90508073ffffffffffffffffffffffffffffffffffffffff168373ffffffffffffffffffffffffffffffffffffffff161415610776576040517f08c379a000000000000000000000000000000000000000000000000000000000815260040161076d90612977565b60405180910390fd5b8073ffffffffffffffffffffffffffffffffffffffff1661079561145a565b73ffffffffffffffffffffffffffffffffffffffff1614806107c457506107c3816107be61145a565b611124565b5b610803576040517f08c379a00000000000000000000000000000000000000000000000000000000081526004016107fa90612837565b60405180910390fd5b61080d8383611462565b505050565b60085481565b61082961082361145a565b8261151b565b610868576040517f08c379a000000000000000000000000000000000000000000000000000000000815260040161085f90612997565b60405180910390fd5b6108738383836115f9565b505050565b61088061145a565b73ffffffffffffffffffffffffffffffffffffffff1661089e610c50565b73ffffffffffffffffffffffffffffffffffffffff16146108f4576040517f08c379a00000000000000000000000000000000000000000000000000000000081526004016108eb90612917565b60405180910390fd5b80600b908051906020019061090a929190611e5a565b5050565b601481565b60096020528060005260406000206000915054906101000a900460ff1681565b6000600a60008373ffffffffffffffffffffffffffffffffffffffff1673ffffffffffffffffffffffffffffffffffffffff16815260200190815260200160002060009054906101000a900460ff169050919050565b6109a483838360405180602001604052806000815250610e8d565b505050565b6000806002600084815260200190815260200160002060009054906101000a900473ffffffffffffffffffffffffffffffffffffffff169050600073ffffffffffffffffffffffffffffffffffffffff168173ffffffffffffffffffffffffffffffffffffffff161415610a52576040517f08c379a0000000000000000000000000000000000000000000000000000000008152600401610a4990612877565b60405180910390fd5b80915050919050565b60008073ffffffffffffffffffffffffffffffffffffffff168273ffffffffffffffffffffffffffffffffffffffff161415610acc576040517f08c379a0000000000000000000000000000000000000000000000000000000008152600401610ac390612857565b60405180910390fd5b600360008373ffffffffffffffffffffffffffffffffffffffff1673ffffffffffffffffffffffffffffffffffffffff168152602001908152602001600020549050919050565b610b1b61145a565b73ffffffffffffffffffffffffffffffffffffffff16610b39610c50565b73ffffffffffffffffffffffffffffffffffffffff1614610b8f576040517f08c379a0000000000000000000000000000000000000000000000000000000008152600401610b8690612917565b60405180910390fd5b600073ffffffffffffffffffffffffffffffffffffffff16600660009054906101000a900473ffffffffffffffffffffffffffffffffffffffff1673ffffffffffffffffffffffffffffffffffffffff167f8be0079c531659141344cd1fd0a4f28419497f9722a3daafe3b4186f6b6457e060405160405180910390a36000600660006101000a81548173ffffffffffffffffffffffffffffffffffffffff021916908373ffffffffffffffffffffffffffffffffffffffff160217905550565b6000600660009054906101000a900473ffffffffffffffffffffffffffffffffffffffff16905090565b606060018054610c8990612c42565b80601f0160208091040260200160405190810160405280929190818152602001828054610cb590612c42565b8015610d025780601f10610cd757610100808354040283529160200191610d02565b820191906000526020600020905b815481529060010190602001808311610ce557829003601f168201915b5050505050905090565b610d1461145a565b73ffffffffffffffffffffffffffffffffffffffff168273ffffffffffffffffffffffffffffffffffffffff161415610d82576040517f08c379a0000000000000000000000000000000000000000000000000000000008152600401610d79906127f7565b60405180910390fd5b8060056000610d8f61145a565b73ffffffffffffffffffffffffffffffffffffffff1673ffffffffffffffffffffffffffffffffffffffff16815260200190815260200160002060008473ffffffffffffffffffffffffffffffffffffffff1673ffffffffffffffffffffffffffffffffffffffff16815260200190815260200160002060006101000a81548160ff0219169083151502179055508173ffffffffffffffffffffffffffffffffffffffff16610e3c61145a565b73ffffffffffffffffffffffffffffffffffffffff167f17307eab39ab6107e8899845ad3d59bd9653f200f220920489ca2b5937696c3183604051610e81919061273a565b60405180910390a35050565b610e9e610e9861145a565b8361151b565b610edd576040517f08c379a0000000000000000000000000000000000000000000000000000000008152600401610ed490612997565b60405180910390fd5b610ee984848484611855565b50505050565b6060610efa826113ee565b610f39576040517f08c379a0000000000000000000000000000000000000000000000000000000008152600401610f3090612957565b60405180910390fd5b600b610f44836118b1565b604051602001610f559291906126a4565b6040516020818303038152906040529050919050565b600960003373ffffffffffffffffffffffffffffffffffffffff1673ffffffffffffffffffffffffffffffffffffffff16815260200190815260200160002060009054906101000a900460ff1615610ff8576040517f08c379a0000000000000000000000000000000000000000000000000000000008152600401610fef906128b7565b60405180910390fd5b60146007541061103d576040517f08c379a0000000000000000000000000000000000000000000000000000000008152600401611034906129b7565b60405180910390fd5b600060075490506001600760008282546110579190612ad1565b925050819055506110683382611a5e565b6001600960003373ffffffffffffffffffffffffffffffffffffffff1673ffffffffffffffffffffffffffffffffffffffff16815260200190815260200160002060006101000a81548160ff0219169083151502179055506001600a60003373ffffffffffffffffffffffffffffffffffffffff1673ffffffffffffffffffffffffffffffffffffffff16815260200190815260200160002060006101000a81548160ff02191690831515021790555060075460088190555050565b6000600560008473ffffffffffffffffffffffffffffffffffffffff1673ffffffffffffffffffffffffffffffffffffffff16815260200190815260200160002060008373ffffffffffffffffffffffffffffffffffffffff1673ffffffffffffffffffffffffffffffffffffffff16815260200190815260200160002060009054906101000a900460ff16905092915050565b6111c061145a565b73ffffffffffffffffffffffffffffffffffffffff166111de610c50565b73ffffffffffffffffffffffffffffffffffffffff1614611234576040517f08c379a000000000000000000000000000000000000000000000000000000000815260040161122b90612917565b60405180910390fd5b600073ffffffffffffffffffffffffffffffffffffffff168173ffffffffffffffffffffffffffffffffffffffff1614156112a4576040517f08c379a000000000000000000000000000000000000000000000000000000000815260040161129b90612797565b60405180910390fd5b8073ffffffffffffffffffffffffffffffffffffffff16600660009054906101000a900473ffffffffffffffffffffffffffffffffffffffff1673ffffffffffffffffffffffffffffffffffffffff167f8be0079c531659141344cd1fd0a4f28419497f9722a3daafe3b4186f6b6457e060405160405180910390a380600660006101000a81548173ffffffffffffffffffffffffffffffffffffffff021916908373ffffffffffffffffffffffffffffffffffffffff16021790555050565b600a6020528060005260406000206000915054906101000a900460ff1681565b60007f01ffc9a7000000000000000000000000000000000000000000000000000000007bffffffffffffffffffffffffffffffffffffffffffffffffffffffff1916827bffffffffffffffffffffffffffffffffffffffffffffffffffffffff1916149050919050565b60008073ffffffffffffffffffffffffffffffffffffffff166002600084815260200190815260200160002060009054906101000a900473ffffffffffffffffffffffffffffffffffffffff1673ffffffffffffffffffffffffffffffffffffffff1614159050919050565b600033905090565b816004600083815260200190815260200160002060006101000a81548173ffffffffffffffffffffffffffffffffffffffff021916908373ffffffffffffffffffffffffffffffffffffffff160217905550808273ffffffffffffffffffffffffffffffffffffffff166114d5836109a9565b73ffffffffffffffffffffffffffffffffffffffff167f8c5be1e5ebec7d5bd14f71427d1e84f3dd0314c0f7b2291e5b200ac8c7c3b92560405160405180910390a45050565b6000611526826113ee565b611565576040517f08c379a000000000000000000000000000000000000000000000000000000000815260040161155c90612817565b60405180910390fd5b6000611570836109a9565b90508073ffffffffffffffffffffffffffffffffffffffff168473ffffffffffffffffffffffffffffffffffffffff1614806115df57508373ffffffffffffffffffffffffffffffffffffffff166115c784610675565b73ffffffffffffffffffffffffffffffffffffffff16145b806115f057506115ef8185611124565b5b91505092915050565b8273ffffffffffffffffffffffffffffffffffffffff16611619826109a9565b73ffffffffffffffffffffffffffffffffffffffff161461166f576040517f08c379a000000000000000000000000000000000000000000000000000000000815260040161166690612937565b60405180910390fd5b600073ffffffffffffffffffffffffffffffffffffffff168273ffffffffffffffffffffffffffffffffffffffff1614156116df576040517f08c379a00000000000000000000000000000000000000000000000000000000081526004016116d6906127d7565b60405180910390fd5b6116ea838383611c2c565b6116f5600082611462565b6001600360008573ffffffffffffffffffffffffffffffffffffffff1673ffffffffffffffffffffffffffffffffffffffff16815260200190815260200160002060008282546117459190612b58565b925050819055506001600360008473ffffffffffffffffffffffffffffffffffffffff1673ffffffffffffffffffffffffffffffffffffffff168152602001908152602001600020600082825461179c9190612ad1565b92505081905550816002600083815260200190815260200160002060006101000a81548173ffffffffffffffffffffffffffffffffffffffff021916908373ffffffffffffffffffffffffffffffffffffffff160217905550808273ffffffffffffffffffffffffffffffffffffffff168473ffffffffffffffffffffffffffffffffffffffff167fddf252ad1be2c89b69c2b068fc378daa952ba7f163c4a11628f55a4df523b3ef60405160405180910390a4505050565b6118608484846115f9565b61186c84848484611cab565b6118ab576040517f08c379a00000000000000000000000000000000000000000000000000000000081526004016118a290612777565b60405180910390fd5b50505050565b606060008214156118f9576040518060400160405280600181526020017f30000000000000000000000000000000000000000000000000000000000000008152509050611a59565b600082905060005b6000821461192b57808061191490612ca5565b915050600a826119249190612b27565b9150611901565b60008167ffffffffffffffff81111561196d577f4e487b7100000000000000000000000000000000000000000000000000000000600052604160045260246000fd5b6040519080825280601f01601f19166020018201604052801561199f5781602001600182028036833780820191505090505b5090505b60008514611a52576001826119b89190612b58565b9150600a856119c79190612cee565b60306119d39190612ad1565b60f81b818381518110611a0f577f4e487b7100000000000000000000000000000000000000000000000000000000600052603260045260246000fd5b60200101907effffffffffffffffffffffffffffffffffffffffffffffffffffffffffffff1916908160001a905350600a85611a4b9190612b27565b94506119a3565b8093505050505b919050565b600073ffffffffffffffffffffffffffffffffffffffff168273ffffffffffffffffffffffffffffffffffffffff161415611ace576040517f08c379a0000000000000000000000000000000000000000000000000000000008152600401611ac5906128d7565b60405180910390fd5b611ad7816113ee565b15611b17576040517f08c379a0000000000000000000000000000000000000000000000000000000008152600401611b0e906127b7565b60405180910390fd5b611b2360008383611c2c565b6001600360008473ffffffffffffffffffffffffffffffffffffffff1673ffffffffffffffffffffffffffffffffffffffff1681526020019081526020016000206000828254611b739190612ad1565b92505081905550816002600083815260200190815260200160002060006101000a81548173ffffffffffffffffffffffffffffffffffffffff021916908373ffffffffffffffffffffffffffffffffffffffff160217905550808273ffffffffffffffffffffffffffffffffffffffff16600073ffffffffffffffffffffffffffffffffffffffff167fddf252ad1be2c89b69c2b068fc378daa952ba7f163c4a11628f55a4df523b3ef60405160405180910390a45050565b600073ffffffffffffffffffffffffffffffffffffffff168373ffffffffffffffffffffffffffffffffffffffff1614611c9b576040517f08c379a0000000000000000000000000000000000000000000000000000000008152600401611c9290612897565b60405180910390fd5b611ca6838383611e42565b505050565b6000611ccc8473ffffffffffffffffffffffffffffffffffffffff16611e47565b15611e35578373ffffffffffffffffffffffffffffffffffffffff1663150b7a02611cf561145a565b8786866040518563ffffffff1660e01b8152600401611d1794939291906126ee565b602060405180830381600087803b158015611d3157600080fd5b505af1925050508015611d6257506040513d601f19601f82011682018060405250810190611d5f9190612206565b60015b611de5573d8060008114611d92576040519150601f19603f3d011682016040523d82523d6000602084013e611d97565b606091505b50600081511415611ddd576040517f08c379a0000000000000000000000000000000000000000000000000000000008152600401611dd490612777565b60405180910390fd5b805181602001fd5b63150b7a0260e01b7bffffffffffffffffffffffffffffffffffffffffffffffffffffffff1916817bffffffffffffffffffffffffffffffffffffffffffffffffffffffff191614915050611e3a565b600190505b949350505050565b505050565b600080823b905060008111915050919050565b828054611e6690612c42565b90600052602060002090601f016020900481019282611e885760008555611ecf565b82601f10611ea157805160ff1916838001178555611ecf565b82800160010185558215611ecf579182015b82811115611ece578251825591602001919060010190611eb3565b5b509050611edc9190611ee0565b5090565b5b80821115611ef9576000816000905550600101611ee1565b5090565b6000611f10611f0b84612a17565b6129f2565b905082815260208101848484011115611f2857600080fd5b611f33848285612c00565b509392505050565b6000611f4e611f4984612a48565b6129f2565b905082815260208101848484011115611f6657600080fd5b611f71848285612c00565b509392505050565b600081359050611f8881613334565b92915050565b600081359050611f9d8161334b565b92915050565b600081359050611fb281613362565b92915050565b600081519050611fc781613362565b92915050565b600082601f830112611fde57600080fd5b8135611fee848260208601611efd565b91505092915050565b600082601f83011261200857600080fd5b8135612018848260208601611f3b565b91505092915050565b60008135905061203081613379565b92915050565b60006020828403121561204857600080fd5b600061205684828501611f79565b91505092915050565b6000806040838503121561207257600080fd5b600061208085828601611f79565b925050602061209185828601611f79565b9150509250929050565b6000806000606084860312156120b057600080fd5b60006120be86828701611f79565b93505060206120cf86828701611f79565b92505060406120e086828701612021565b9150509250925092565b6000806000806080858703121561210057600080fd5b600061210e87828801611f79565b945050602061211f87828801611f79565b935050604061213087828801612021565b925050606085013567ffffffffffffffff81111561214d57600080fd5b61215987828801611fcd565b91505092959194509250565b6000806040838503121561217857600080fd5b600061218685828601611f79565b925050602061219785828601611f8e565b9150509250929050565b600080604083850312156121b457600080fd5b60006121c285828601611f79565b92505060206121d385828601612021565b9150509250929050565b6000602082840312156121ef57600080fd5b60006121fd84828501611fa3565b91505092915050565b60006020828403121561221857600080fd5b600061222684828501611fb8565b91505092915050565b60006020828403121561224157600080fd5b600082013567ffffffffffffffff81111561225b57600080fd5b61226784828501611ff7565b91505092915050565b60006020828403121561228257600080fd5b600061229084828501612021565b91505092915050565b6122a281612b8c565b82525050565b6122b181612b9e565b82525050565b60006122c282612a8e565b6122cc8185612aa4565b93506122dc818560208601612c0f565b6122e581612ddb565b840191505092915050565b60006122fb82612a99565b6123058185612ab5565b9350612315818560208601612c0f565b61231e81612ddb565b840191505092915050565b600061233482612a99565b61233e8185612ac6565b935061234e818560208601612c0f565b80840191505092915050565b6000815461236781612c42565b6123718186612ac6565b9450600182166000811461238c576001811461239d576123d0565b60ff198316865281860193506123d0565b6123a685612a79565b60005b838110156123c8578154818901526001820191506020810190506123a9565b838801955050505b50505092915050565b60006123e6603283612ab5565b91506123f182612dec565b604082019050919050565b6000612409602683612ab5565b915061241482612e3b565b604082019050919050565b600061242c601c83612ab5565b915061243782612e8a565b602082019050919050565b600061244f602483612ab5565b915061245a82612eb3565b604082019050919050565b6000612472601983612ab5565b915061247d82612f02565b602082019050919050565b6000612495602c83612ab5565b91506124a082612f2b565b604082019050919050565b60006124b8603883612ab5565b91506124c382612f7a565b604082019050919050565b60006124db602a83612ab5565b91506124e682612fc9565b604082019050919050565b60006124fe602983612ab5565b915061250982613018565b604082019050919050565b6000612521602c83612ab5565b915061252c82613067565b604082019050919050565b6000612544602c83612ab5565b915061254f826130b6565b604082019050919050565b6000612567602083612ab5565b915061257282613105565b602082019050919050565b600061258a602c83612ab5565b91506125958261312e565b604082019050919050565b60006125ad600583612ac6565b91506125b88261317d565b600582019050919050565b60006125d0602083612ab5565b91506125db826131a6565b602082019050919050565b60006125f3602983612ab5565b91506125fe826131cf565b604082019050919050565b6000612616602f83612ab5565b91506126218261321e565b604082019050919050565b6000612639602183612ab5565b91506126448261326d565b604082019050919050565b600061265c603183612ab5565b9150612667826132bc565b604082019050919050565b600061267f601283612ab5565b915061268a8261330b565b602082019050919050565b61269e81612bf6565b82525050565b60006126b0828561235a565b91506126bc8284612329565b91506126c7826125a0565b91508190509392505050565b60006020820190506126e86000830184612299565b92915050565b60006080820190506127036000830187612299565b6127106020830186612299565b61271d6040830185612695565b818103606083015261272f81846122b7565b905095945050505050565b600060208201905061274f60008301846122a8565b92915050565b6000602082019050818103600083015261276f81846122f0565b905092915050565b60006020820190508181036000830152612790816123d9565b9050919050565b600060208201905081810360008301526127b0816123fc565b9050919050565b600060208201905081810360008301526127d08161241f565b9050919050565b600060208201905081810360008301526127f081612442565b9050919050565b6000602082019050818103600083015261281081612465565b9050919050565b6000602082019050818103600083015261283081612488565b9050919050565b60006020820190508181036000830152612850816124ab565b9050919050565b60006020820190508181036000830152612870816124ce565b9050919050565b60006020820190508181036000830152612890816124f1565b9050919050565b600060208201905081810360008301526128b081612514565b9050919050565b600060208201905081810360008301526128d081612537565b9050919050565b600060208201905081810360008301526128f08161255a565b9050919050565b600060208201905081810360008301526129108161257d565b9050919050565b60006020820190508181036000830152612930816125c3565b9050919050565b60006020820190508181036000830152612950816125e6565b9050919050565b6000602082019050818103600083015261297081612609565b9050919050565b600060208201905081810360008301526129908161262c565b9050919050565b600060208201905081810360008301526129b08161264f565b9050919050565b600060208201905081810360008301526129d081612672565b9050919050565b60006020820190506129ec6000830184612695565b92915050565b60006129fc612a0d565b9050612a088282612c74565b919050565b6000604051905090565b600067ffffffffffffffff821115612a3257612a31612dac565b5b612a3b82612ddb565b9050602081019050919050565b600067ffffffffffffffff821115612a6357612a62612dac565b5b612a6c82612ddb565b9050602081019050919050565b60008190508160005260206000209050919050565b600081519050919050565b600081519050919050565b600082825260208201905092915050565b600082825260208201905092915050565b600081905092915050565b6000612adc82612bf6565b9150612ae783612bf6565b9250827fffffffffffffffffffffffffffffffffffffffffffffffffffffffffffffffff03821115612b1c57612b1b612d1f565b5b828201905092915050565b6000612b3282612bf6565b9150612b3d83612bf6565b925082612b4d57612b4c612d4e565b5b828204905092915050565b6000612b6382612bf6565b9150612b6e83612bf6565b925082821015612b8157612b80612d1f565b5b828203905092915050565b6000612b9782612bd6565b9050919050565b60008115159050919050565b60007fffffffff0000000000000000000000000000000000000000000000000000000082169050919050565b600073ffffffffffffffffffffffffffffffffffffffff82169050919050565b6000819050919050565b82818337600083830152505050565b60005b83811015612c2d578082015181840152602081019050612c12565b83811115612c3c576000848401525b50505050565b60006002820490506001821680612c5a57607f821691505b60208210811415612c6e57612c6d612d7d565b5b50919050565b612c7d82612ddb565b810181811067ffffffffffffffff82111715612c9c57612c9b612dac565b5b80604052505050565b6000612cb082612bf6565b91507fffffffffffffffffffffffffffffffffffffffffffffffffffffffffffffffff821415612ce357612ce2612d1f565b5b600182019050919050565b6000612cf982612bf6565b9150612d0483612bf6565b925082612d1457612d13612d4e565b5b828206905092915050565b7f4e487b7100000000000000000000000000000000000000000000000000000000600052601160045260246000fd5b7f4e487b7100000000000000000000000000000000000000000000000000000000600052601260045260246000fd5b7f4e487b7100000000000000000000000000000000000000000000000000000000600052602260045260246000fd5b7f4e487b7100000000000000000000000000000000000000000000000000000000600052604160045260246000fd5b6000601f19601f8301169050919050565b7f4552433732313a207472616e7366657220746f206e6f6e20455243373231526560008201527f63656976657220696d706c656d656e7465720000000000000000000000000000602082015250565b7f4f776e61626c653a206e6577206f776e657220697320746865207a65726f206160008201527f6464726573730000000000000000000000000000000000000000000000000000602082015250565b7f4552433732313a20746f6b656e20616c7265616479206d696e74656400000000600082015250565b7f4552433732313a207472616e7366657220746f20746865207a65726f2061646460008201527f7265737300000000000000000000000000000000000000000000000000000000602082015250565b7f4552433732313a20617070726f766520746f2063616c6c657200000000000000600082015250565b7f4552433732313a206f70657261746f7220717565727920666f72206e6f6e657860008201527f697374656e7420746f6b656e0000000000000000000000000000000000000000602082015250565b7f4552433732313a20617070726f76652063616c6c6572206973206e6f74206f7760008201527f6e6572206e6f7220617070726f76656420666f7220616c6c0000000000000000602082015250565b7f4552433732313a2062616c616e636520717565727920666f7220746865207a6560008201527f726f206164647265737300000000000000000000000000000000000000000000602082015250565b7f4552433732313a206f776e657220717565727920666f72206e6f6e657869737460008201527f656e7420746f6b656e0000000000000000000000000000000000000000000000602082015250565b7f546f6b656e20697320736f756c626f756e6420616e642063616e6e6f7420626560008201527f207472616e736665727265640000000000000000000000000000000000000000602082015250565b7f596f75206861766520616c7265616479206d696e74656420796f757220536f7560008201527f6c626f756e6420746f6b656e0000000000000000000000000000000000000000602082015250565b7f4552433732313a206d696e7420746f20746865207a65726f2061646472657373600082015250565b7f4552433732313a20617070726f76656420717565727920666f72206e6f6e657860008201527f697374656e7420746f6b656e0000000000000000000000000000000000000000602082015250565b7f2e6a736f6e000000000000000000000000000000000000000000000000000000600082015250565b7f4f776e61626c653a2063616c6c6572206973206e6f7420746865206f776e6572600082015250565b7f4552433732313a207472616e73666572206f6620746f6b656e2074686174206960008201527f73206e6f74206f776e0000000000000000000000000000000000000000000000602082015250565b7f4552433732314d657461646174613a2055524920717565727920666f72206e6f60008201527f6e6578697374656e7420746f6b656e0000000000000000000000000000000000602082015250565b7f4552433732313a20617070726f76616c20746f2063757272656e74206f776e6560008201527f7200000000000000000000000000000000000000000000000000000000000000602082015250565b7f4552433732313a207472616e736665722063616c6c6572206973206e6f74206f60008201527f776e6572206e6f7220617070726f766564000000000000000000000000000000602082015250565b7f4d617820737570706c7920726561636865640000000000000000000000000000600082015250565b61333d81612b8c565b811461334857600080fd5b50565b61335481612b9e565b811461335f57600080fd5b50565b61336b81612baa565b811461337657600080fd5b50565b61338281612bf6565b811461338d57600080fd5b5056fea2646970667358221220314ced920185dcec51b56c52f497a04e4958b89fc7aceddcb800343adbfe087464736f6c6343000801003368747470733a2f2f676174657761792e70696e6174612e636c6f75642f697066732f516d645a677453697650573463393251414c775164364c3862446a517a4e564773453934543166546878354861412f7b746f6b656e49647d2e6a736f6e",
  "linkReferences": {},
  "deployedLinkReferences": {}
}